{
  "contractName": "RevenueShare",
  "abi": [
    {
      "anonymous": false,
      "inputs": [
        {
          "indexed": true,
          "internalType": "address",
          "name": "previousOwner",
          "type": "address"
        },
        {
          "indexed": true,
          "internalType": "address",
          "name": "newOwner",
          "type": "address"
        }
      ],
      "name": "OwnershipTransferred",
      "type": "event"
    },
    {
      "inputs": [],
      "name": "acceptedPayTokenAddress",
      "outputs": [
        {
          "internalType": "address",
          "name": "",
          "type": "address"
        }
      ],
      "stateMutability": "view",
      "type": "function"
    },
    {
      "inputs": [],
      "name": "envelopWithdrawlAddress",
      "outputs": [
        {
          "internalType": "address",
          "name": "",
          "type": "address"
        }
      ],
      "stateMutability": "view",
      "type": "function"
    },
    {
      "inputs": [],
      "name": "oortProportion",
      "outputs": [
        {
          "internalType": "uint8",
          "name": "",
          "type": "uint8"
        }
      ],
      "stateMutability": "view",
      "type": "function"
    },
    {
      "inputs": [],
      "name": "oortWithdrawlAddress",
      "outputs": [
        {
          "internalType": "address",
          "name": "",
          "type": "address"
        }
      ],
      "stateMutability": "view",
      "type": "function"
    },
    {
      "inputs": [],
      "name": "owner",
      "outputs": [
        {
          "internalType": "address",
          "name": "",
          "type": "address"
        }
      ],
      "stateMutability": "view",
      "type": "function"
    },
    {
      "inputs": [],
      "name": "renounceOwnership",
      "outputs": [],
      "stateMutability": "nonpayable",
      "type": "function"
    },
    {
      "inputs": [
        {
          "internalType": "address",
          "name": "newOwner",
          "type": "address"
        }
      ],
      "name": "transferOwnership",
      "outputs": [],
      "stateMutability": "nonpayable",
      "type": "function"
    },
    {
      "inputs": [
        {
          "internalType": "address",
          "name": "payTokenAddress",
          "type": "address"
        },
        {
          "internalType": "address",
          "name": "oortAddress",
          "type": "address"
        },
        {
          "internalType": "address",
          "name": "envelopAddress",
          "type": "address"
        },
        {
          "internalType": "uint8",
          "name": "proportion",
          "type": "uint8"
        }
      ],
      "name": "initialize",
      "outputs": [],
      "stateMutability": "nonpayable",
      "type": "function"
    },
    {
      "inputs": [
        {
          "internalType": "address",
          "name": "oortAddress",
          "type": "address"
        }
      ],
      "name": "setOortWithdrawlAddress",
      "outputs": [],
      "stateMutability": "nonpayable",
      "type": "function"
    },
    {
      "inputs": [
        {
          "internalType": "address",
          "name": "envelopAddress",
          "type": "address"
        }
      ],
      "name": "setEnvelopWithdrawlAddress",
      "outputs": [],
      "stateMutability": "nonpayable",
      "type": "function"
    },
    {
      "inputs": [
        {
          "internalType": "uint8",
          "name": "proportion",
          "type": "uint8"
        }
      ],
      "name": "setOortProportion",
      "outputs": [],
      "stateMutability": "nonpayable",
      "type": "function"
    },
    {
      "inputs": [],
      "name": "getTotalBalance",
      "outputs": [
        {
          "internalType": "uint256",
          "name": "",
          "type": "uint256"
        }
      ],
      "stateMutability": "view",
      "type": "function"
    },
    {
      "inputs": [],
      "name": "getOortBalance",
      "outputs": [
        {
          "internalType": "uint256",
          "name": "",
          "type": "uint256"
        }
      ],
      "stateMutability": "view",
      "type": "function"
    },
    {
      "inputs": [],
      "name": "getEnvelopBalance",
      "outputs": [
        {
          "internalType": "uint256",
          "name": "",
          "type": "uint256"
        }
      ],
      "stateMutability": "view",
      "type": "function"
    },
    {
      "inputs": [],
      "name": "withdrawl",
      "outputs": [],
      "stateMutability": "nonpayable",
      "type": "function"
    }
  ],
  "bytecode": "0x608060405234801561001057600080fd5b506116e1806100206000396000f3fe608060405234801561001057600080fd5b50600436106100f55760003560e01c8063715018a6116100975780638b0f1273116100665780638b0f1273146102165780638da5cb5b14610232578063edd2c08514610250578063f2fde38b1461026e576100f5565b8063715018a6146101b4578063735682c1146101be578063739bc3dc146101dc578063791e32d1146101f8576100f5565b80633aedfb8b116100d35780633aedfb8b1461015057806345a3532c1461015a5780635e2afd96146101785780635e37914014610196576100f5565b806312b58349146100fa57806325cee199146101185780633073cecf14610134575b600080fd5b61010261028a565b60405161010f9190610f3e565b60405180910390f35b610132600480360381019061012d9190610fbc565b61032d565b005b61014e60048036038101906101499190611022565b6103ed565b005b6101586105bb565b005b610162610845565b60405161016f9190610f3e565b60405180910390f35b610180610864565b60405161018d9190611098565b60405180910390f35b61019e61088a565b6040516101ab9190610f3e565b60405180910390f35b6101bc6108b5565b005b6101c661093d565b6040516101d39190611098565b60405180910390f35b6101f660048036038101906101f191906110b3565b610963565b005b610200610a8a565b60405161020d91906110ef565b60405180910390f35b610230600480360381019061022b9190610fbc565b610a9d565b005b61023a610b5d565b6040516102479190611098565b60405180910390f35b610258610b87565b6040516102659190611098565b60405180910390f35b61028860048036038101906102839190610fbc565b610bad565b005b6000606560009054906101000a900473ffffffffffffffffffffffffffffffffffffffff1673ffffffffffffffffffffffffffffffffffffffff166370a08231306040518263ffffffff1660e01b81526004016102e79190611098565b602060405180830381865afa158015610304573d6000803e3d6000fd5b505050506040513d601f19601f820116820180604052508101906103289190611136565b905090565b610335610ca5565b73ffffffffffffffffffffffffffffffffffffffff16610353610b5d565b73ffffffffffffffffffffffffffffffffffffffff16146103a9576040517f08c379a00000000000000000000000000000000000000000000000000000000081526004016103a0906111c0565b60405180910390fd5b80606660006101000a81548173ffffffffffffffffffffffffffffffffffffffff021916908373ffffffffffffffffffffffffffffffffffffffff16021790555050565b600060019054906101000a900460ff166104155760008054906101000a900460ff161561041e565b61041d610cad565b5b61045d576040517f08c379a000000000000000000000000000000000000000000000000000000000815260040161045490611252565b60405180910390fd5b60008060019054906101000a900460ff1615905080156104ad576001600060016101000a81548160ff02191690831515021790555060016000806101000a81548160ff0219169083151502179055505b6104b5610cbe565b84606560006101000a81548173ffffffffffffffffffffffffffffffffffffffff021916908373ffffffffffffffffffffffffffffffffffffffff16021790555083606660006101000a81548173ffffffffffffffffffffffffffffffffffffffff021916908373ffffffffffffffffffffffffffffffffffffffff16021790555082606760006101000a81548173ffffffffffffffffffffffffffffffffffffffff021916908373ffffffffffffffffffffffffffffffffffffffff16021790555081606760146101000a81548160ff021916908360ff16021790555080156105b45760008060016101000a81548160ff0219169083151502179055505b5050505050565b606660009054906101000a900473ffffffffffffffffffffffffffffffffffffffff1673ffffffffffffffffffffffffffffffffffffffff163373ffffffffffffffffffffffffffffffffffffffff1614806106645750606760009054906101000a900473ffffffffffffffffffffffffffffffffffffffff1673ffffffffffffffffffffffffffffffffffffffff163373ffffffffffffffffffffffffffffffffffffffff16145b6106a3576040517f08c379a000000000000000000000000000000000000000000000000000000000815260040161069a906112be565b60405180910390fd5b60006106ad610845565b905060006106b961088a565b9050606560009054906101000a900473ffffffffffffffffffffffffffffffffffffffff1673ffffffffffffffffffffffffffffffffffffffff1663a9059cbb606660009054906101000a900473ffffffffffffffffffffffffffffffffffffffff16846040518363ffffffff1660e01b815260040161073a9291906112de565b6020604051808303816000875af1158015610759573d6000803e3d6000fd5b505050506040513d601f19601f8201168201806040525081019061077d919061133f565b50606560009054906101000a900473ffffffffffffffffffffffffffffffffffffffff1673ffffffffffffffffffffffffffffffffffffffff1663a9059cbb606760009054906101000a900473ffffffffffffffffffffffffffffffffffffffff16836040518363ffffffff1660e01b81526004016107fd9291906112de565b6020604051808303816000875af115801561081c573d6000803e3d6000fd5b505050506040513d601f19601f82011682018060405250810190610840919061133f565b505050565b600061085f606760149054906101000a900460ff16610d17565b905090565b606560009054906101000a900473ffffffffffffffffffffffffffffffffffffffff1681565b60006108b0606760149054906101000a900460ff1660646108ab919061139b565b610d17565b905090565b6108bd610ca5565b73ffffffffffffffffffffffffffffffffffffffff166108db610b5d565b73ffffffffffffffffffffffffffffffffffffffff1614610931576040517f08c379a0000000000000000000000000000000000000000000000000000000008152600401610928906111c0565b60405180910390fd5b61093b6000610ddb565b565b606760009054906101000a900473ffffffffffffffffffffffffffffffffffffffff1681565b61096b610ca5565b73ffffffffffffffffffffffffffffffffffffffff16610989610b5d565b73ffffffffffffffffffffffffffffffffffffffff16146109df576040517f08c379a00000000000000000000000000000000000000000000000000000000081526004016109d6906111c0565b60405180910390fd5b60648160ff161115610a26576040517f08c379a0000000000000000000000000000000000000000000000000000000008152600401610a1d90611441565b60405180910390fd5b60008160ff1611610a6c576040517f08c379a0000000000000000000000000000000000000000000000000000000008152600401610a63906114ad565b60405180910390fd5b80606760146101000a81548160ff021916908360ff16021790555050565b606760149054906101000a900460ff1681565b610aa5610ca5565b73ffffffffffffffffffffffffffffffffffffffff16610ac3610b5d565b73ffffffffffffffffffffffffffffffffffffffff1614610b19576040517f08c379a0000000000000000000000000000000000000000000000000000000008152600401610b10906111c0565b60405180910390fd5b80606760006101000a81548173ffffffffffffffffffffffffffffffffffffffff021916908373ffffffffffffffffffffffffffffffffffffffff16021790555050565b6000603360009054906101000a900473ffffffffffffffffffffffffffffffffffffffff16905090565b606660009054906101000a900473ffffffffffffffffffffffffffffffffffffffff1681565b610bb5610ca5565b73ffffffffffffffffffffffffffffffffffffffff16610bd3610b5d565b73ffffffffffffffffffffffffffffffffffffffff1614610c29576040517f08c379a0000000000000000000000000000000000000000000000000000000008152600401610c20906111c0565b60405180910390fd5b600073ffffffffffffffffffffffffffffffffffffffff168173ffffffffffffffffffffffffffffffffffffffff161415610c99576040517f08c379a0000000000000000000000000000000000000000000000000000000008152600401610c909061153f565b60405180910390fd5b610ca281610ddb565b50565b600033905090565b6000610cb830610ea1565b15905090565b600060019054906101000a900460ff16610d0d576040517f08c379a0000000000000000000000000000000000000000000000000000000008152600401610d04906115d1565b60405180910390fd5b610d15610ec4565b565b600080606560009054906101000a900473ffffffffffffffffffffffffffffffffffffffff1673ffffffffffffffffffffffffffffffffffffffff166370a08231306040518263ffffffff1660e01b8152600401610d759190611098565b602060405180830381865afa158015610d92573d6000803e3d6000fd5b505050506040513d601f19601f82011682018060405250810190610db69190611136565b90508260ff16606482610dc99190611620565b610dd39190611651565b915050919050565b6000603360009054906101000a900473ffffffffffffffffffffffffffffffffffffffff16905081603360006101000a81548173ffffffffffffffffffffffffffffffffffffffff021916908373ffffffffffffffffffffffffffffffffffffffff1602179055508173ffffffffffffffffffffffffffffffffffffffff168173ffffffffffffffffffffffffffffffffffffffff167f8be0079c531659141344cd1fd0a4f28419497f9722a3daafe3b4186f6b6457e060405160405180910390a35050565b6000808273ffffffffffffffffffffffffffffffffffffffff163b119050919050565b600060019054906101000a900460ff16610f13576040517f08c379a0000000000000000000000000000000000000000000000000000000008152600401610f0a906115d1565b60405180910390fd5b610f23610f1e610ca5565b610ddb565b565b6000819050919050565b610f3881610f25565b82525050565b6000602082019050610f536000830184610f2f565b92915050565b600080fd5b600073ffffffffffffffffffffffffffffffffffffffff82169050919050565b6000610f8982610f5e565b9050919050565b610f9981610f7e565b8114610fa457600080fd5b50565b600081359050610fb681610f90565b92915050565b600060208284031215610fd257610fd1610f59565b5b6000610fe084828501610fa7565b91505092915050565b600060ff82169050919050565b610fff81610fe9565b811461100a57600080fd5b50565b60008135905061101c81610ff6565b92915050565b6000806000806080858703121561103c5761103b610f59565b5b600061104a87828801610fa7565b945050602061105b87828801610fa7565b935050604061106c87828801610fa7565b925050606061107d8782880161100d565b91505092959194509250565b61109281610f7e565b82525050565b60006020820190506110ad6000830184611089565b92915050565b6000602082840312156110c9576110c8610f59565b5b60006110d78482850161100d565b91505092915050565b6110e981610fe9565b82525050565b600060208201905061110460008301846110e0565b92915050565b61111381610f25565b811461111e57600080fd5b50565b6000815190506111308161110a565b92915050565b60006020828403121561114c5761114b610f59565b5b600061115a84828501611121565b91505092915050565b600082825260208201905092915050565b7f4f776e61626c653a2063616c6c6572206973206e6f7420746865206f776e6572600082015250565b60006111aa602083611163565b91506111b582611174565b602082019050919050565b600060208201905081810360008301526111d98161119d565b9050919050565b7f496e697469616c697a61626c653a20636f6e747261637420697320616c72656160008201527f647920696e697469616c697a6564000000000000000000000000000000000000602082015250565b600061123c602e83611163565b9150611247826111e0565b604082019050919050565b6000602082019050818103600083015261126b8161122f565b9050919050565b7f43616c6c657220686173206e6f207065726d6973696f6e000000000000000000600082015250565b60006112a8601783611163565b91506112b382611272565b602082019050919050565b600060208201905081810360008301526112d78161129b565b9050919050565b60006040820190506112f36000830185611089565b6113006020830184610f2f565b9392505050565b60008115159050919050565b61131c81611307565b811461132757600080fd5b50565b60008151905061133981611313565b92915050565b60006020828403121561135557611354610f59565b5b60006113638482850161132a565b91505092915050565b7f4e487b7100000000000000000000000000000000000000000000000000000000600052601160045260246000fd5b60006113a682610fe9565b91506113b183610fe9565b9250828210156113c4576113c361136c565b5b828203905092915050565b7f43616e6e6f74207365742070726f706f7274696f6e206d6f726520746861742060008201527f3130302500000000000000000000000000000000000000000000000000000000602082015250565b600061142b602483611163565b9150611436826113cf565b604082019050919050565b6000602082019050818103600083015261145a8161141e565b9050919050565b7f43616e6e6f74206265207a65726f000000000000000000000000000000000000600082015250565b6000611497600e83611163565b91506114a282611461565b602082019050919050565b600060208201905081810360008301526114c68161148a565b9050919050565b7f4f776e61626c653a206e6577206f776e657220697320746865207a65726f206160008201527f6464726573730000000000000000000000000000000000000000000000000000602082015250565b6000611529602683611163565b9150611534826114cd565b604082019050919050565b600060208201905081810360008301526115588161151c565b9050919050565b7f496e697469616c697a61626c653a20636f6e7472616374206973206e6f74206960008201527f6e697469616c697a696e67000000000000000000000000000000000000000000602082015250565b60006115bb602b83611163565b91506115c68261155f565b604082019050919050565b600060208201905081810360008301526115ea816115ae565b9050919050565b7f4e487b7100000000000000000000000000000000000000000000000000000000600052601260045260246000fd5b600061162b82610f25565b915061163683610f25565b925082611646576116456115f1565b5b828204905092915050565b600061165c82610f25565b915061166783610f25565b9250817fffffffffffffffffffffffffffffffffffffffffffffffffffffffffffffffff04831182151516156116a05761169f61136c565b5b82820290509291505056fea2646970667358221220dc53e519b35ee7b75579913595dc251fa87401a1cd13aeba51ed20fc7616a0aa64736f6c634300080b0033",
  "immutableReferences": {},
  "source": "// SPDX-License-Identifier: MIT\r\npragma solidity >=0.4.22 <0.9.0;\r\n\r\nimport \"@openzeppelin/contracts-upgradeable/access/OwnableUpgradeable.sol\";\r\nimport \"@openzeppelin/contracts/token/ERC20/IERC20.sol\";\r\n\r\ncontract RevenueShare is Initializable, OwnableUpgradeable {\r\n \r\n    address public acceptedPayTokenAddress;\r\n    address public oortWithdrawlAddress;\r\n    address public envelopWithdrawlAddress;\r\n    \r\n    uint8 public oortProportion;\r\n\r\n    function initialize(\r\n            address payTokenAddress,\r\n            address oortAddress,\r\n            address envelopAddress,\r\n            uint8 proportion) initializer public {\r\n        OwnableUpgradeable.__Ownable_init();\r\n        acceptedPayTokenAddress = payTokenAddress;\r\n        oortWithdrawlAddress = oortAddress;\r\n        envelopWithdrawlAddress = envelopAddress;\r\n        oortProportion = proportion;\r\n    }\r\n\r\n    function setOortWithdrawlAddress(address oortAddress) public onlyOwner {\r\n        oortWithdrawlAddress = oortAddress;\r\n    }\r\n\r\n    function setEnvelopWithdrawlAddress(address envelopAddress) public onlyOwner {\r\n        envelopWithdrawlAddress = envelopAddress;\r\n    }\r\n\r\n    function setOortProportion(uint8 proportion) public onlyOwner {\r\n        require(proportion <= 100, 'Cannot set proportion more that 100%');\r\n        require(proportion > 0, 'Cannot be zero');\r\n        oortProportion = proportion;\r\n    }\r\n\r\n    function getTotalBalance() public view returns (uint256) {\r\n        return IERC20(acceptedPayTokenAddress).balanceOf(address(this));\r\n    }\r\n\r\n    function getProportionalBalance(uint8 proportion) private view returns (uint256) {\r\n        uint256 totalBalance = IERC20(acceptedPayTokenAddress).balanceOf(address(this));\r\n        return totalBalance / 100 * proportion;\r\n    }\r\n\r\n    function getOortBalance() public view returns (uint256) {\r\n        return getProportionalBalance(oortProportion);\r\n    }\r\n\r\n    function getEnvelopBalance() public view returns (uint256) {\r\n        return getProportionalBalance(100 - oortProportion);\r\n    }\r\n\r\n    function withdrawl() public {\r\n\r\n        require(\r\n            msg.sender == oortWithdrawlAddress ||\r\n            msg.sender == envelopWithdrawlAddress\r\n        , 'Caller has no permision');\r\n        uint256 oortBalance = getOortBalance();\r\n        uint256 envelopBalance = getEnvelopBalance();\r\n        IERC20(acceptedPayTokenAddress).transfer(oortWithdrawlAddress, oortBalance);\r\n        IERC20(acceptedPayTokenAddress).transfer(envelopWithdrawlAddress, envelopBalance);\r\n    }\r\n\r\n}",
  "sourcePath": "C:\\Users\\olteg\\projects\\revenue-share\\contracts\\RevenueShare.sol",
  "compiler": {
    "name": "solc",
    "version": "0.8.11+commit.d7f03943.Emscripten.clang"
  },
  "schemaVersion": "3.4.7",
  "updatedAt": "2022-04-14T16:34:38.633Z",
  "devdoc": {
    "kind": "dev",
    "methods": {
      "owner()": {
        "details": "Returns the address of the current owner."
      },
      "renounceOwnership()": {
        "details": "Leaves the contract without owner. It will not be possible to call `onlyOwner` functions anymore. Can only be called by the current owner. NOTE: Renouncing ownership will leave the contract without an owner, thereby removing any functionality that is only available to the owner."
      },
      "transferOwnership(address)": {
        "details": "Transfers ownership of the contract to a new account (`newOwner`). Can only be called by the current owner."
      }
    },
    "version": 1
  },
  "userdoc": {
    "kind": "user",
    "methods": {},
    "version": 1
  }
}