{
  "contractName": "RevenueShare",
  "abi": [
    {
      "anonymous": false,
      "inputs": [
        {
          "indexed": true,
          "internalType": "address",
          "name": "previousOwner",
          "type": "address"
        },
        {
          "indexed": true,
          "internalType": "address",
          "name": "newOwner",
          "type": "address"
        }
      ],
      "name": "OwnershipTransferred",
      "type": "event"
    },
    {
      "inputs": [],
      "name": "acceptedPayTokenAddress",
      "outputs": [
        {
          "internalType": "address",
          "name": "",
          "type": "address"
        }
      ],
      "stateMutability": "view",
      "type": "function"
    },
    {
      "inputs": [],
      "name": "envelopWithdrawlAddress",
      "outputs": [
        {
          "internalType": "address",
          "name": "",
          "type": "address"
        }
      ],
      "stateMutability": "view",
      "type": "function"
    },
    {
      "inputs": [],
      "name": "oortProportion",
      "outputs": [
        {
          "internalType": "uint8",
          "name": "",
          "type": "uint8"
        }
      ],
      "stateMutability": "view",
      "type": "function"
    },
    {
      "inputs": [],
      "name": "oortWithdrawlAddress",
      "outputs": [
        {
          "internalType": "address",
          "name": "",
          "type": "address"
        }
      ],
      "stateMutability": "view",
      "type": "function"
    },
    {
      "inputs": [],
      "name": "owner",
      "outputs": [
        {
          "internalType": "address",
          "name": "",
          "type": "address"
        }
      ],
      "stateMutability": "view",
      "type": "function"
    },
    {
      "inputs": [],
      "name": "renounceOwnership",
      "outputs": [],
      "stateMutability": "nonpayable",
      "type": "function"
    },
    {
      "inputs": [
        {
          "internalType": "address",
          "name": "newOwner",
          "type": "address"
        }
      ],
      "name": "transferOwnership",
      "outputs": [],
      "stateMutability": "nonpayable",
      "type": "function"
    },
    {
      "inputs": [
        {
          "internalType": "address",
          "name": "payTokenAddress",
          "type": "address"
        },
        {
          "internalType": "address",
          "name": "oortAddress",
          "type": "address"
        },
        {
          "internalType": "address",
          "name": "envelopAddress",
          "type": "address"
        },
        {
          "internalType": "uint8",
          "name": "proportion",
          "type": "uint8"
        }
      ],
      "name": "initialize",
      "outputs": [],
      "stateMutability": "nonpayable",
      "type": "function"
    },
    {
      "inputs": [
        {
          "internalType": "address",
          "name": "oortAddress",
          "type": "address"
        }
      ],
      "name": "setOortWithdrawlAddress",
      "outputs": [],
      "stateMutability": "nonpayable",
      "type": "function"
    },
    {
      "inputs": [
        {
          "internalType": "address",
          "name": "envelopAddress",
          "type": "address"
        }
      ],
      "name": "setEnvelopWithdrawlAddress",
      "outputs": [],
      "stateMutability": "nonpayable",
      "type": "function"
    },
    {
      "inputs": [
        {
          "internalType": "uint8",
          "name": "proportion",
          "type": "uint8"
        }
      ],
      "name": "setOortProportion",
      "outputs": [],
      "stateMutability": "nonpayable",
      "type": "function"
    },
    {
      "inputs": [],
      "name": "getTotalBalance",
      "outputs": [
        {
          "internalType": "uint256",
          "name": "",
          "type": "uint256"
        }
      ],
      "stateMutability": "view",
      "type": "function"
    },
    {
      "inputs": [],
      "name": "getOortBalance",
      "outputs": [
        {
          "internalType": "uint256",
          "name": "",
          "type": "uint256"
        }
      ],
      "stateMutability": "view",
      "type": "function"
    },
    {
      "inputs": [],
      "name": "getEnvelopBalance",
      "outputs": [
        {
          "internalType": "uint256",
          "name": "",
          "type": "uint256"
        }
      ],
      "stateMutability": "view",
      "type": "function"
    },
    {
      "inputs": [],
      "name": "withdrawl",
      "outputs": [],
      "stateMutability": "nonpayable",
      "type": "function"
    }
  ],
  "bytecode": "0x608060405234801561001057600080fd5b5061158d806100206000396000f3fe608060405234801561001057600080fd5b50600436106100f55760003560e01c8063715018a6116100975780638b0f1273116100665780638b0f1273146102165780638da5cb5b14610232578063edd2c08514610250578063f2fde38b1461026e576100f5565b8063715018a6146101b4578063735682c1146101be578063739bc3dc146101dc578063791e32d1146101f8576100f5565b80633aedfb8b116100d35780633aedfb8b1461015057806345a3532c1461015a5780635e2afd96146101785780635e37914014610196576100f5565b806312b58349146100fa57806325cee199146101185780633073cecf14610134575b600080fd5b61010261028a565b60405161010f9190610e56565b60405180910390f35b610132600480360381019061012d9190610ed4565b61032d565b005b61014e60048036038101906101499190610f3a565b6103ed565b005b6101586105bb565b005b61016261075d565b60405161016f9190610e56565b60405180910390f35b61018061077c565b60405161018d9190610fb0565b60405180910390f35b61019e6107a2565b6040516101ab9190610e56565b60405180910390f35b6101bc6107cd565b005b6101c6610855565b6040516101d39190610fb0565b60405180910390f35b6101f660048036038101906101f19190610fcb565b61087b565b005b6102006109a2565b60405161020d9190611007565b60405180910390f35b610230600480360381019061022b9190610ed4565b6109b5565b005b61023a610a75565b6040516102479190610fb0565b60405180910390f35b610258610a9f565b6040516102659190610fb0565b60405180910390f35b61028860048036038101906102839190610ed4565b610ac5565b005b6000606560009054906101000a900473ffffffffffffffffffffffffffffffffffffffff1673ffffffffffffffffffffffffffffffffffffffff166370a08231306040518263ffffffff1660e01b81526004016102e79190610fb0565b602060405180830381865afa158015610304573d6000803e3d6000fd5b505050506040513d601f19601f82011682018060405250810190610328919061104e565b905090565b610335610bbd565b73ffffffffffffffffffffffffffffffffffffffff16610353610a75565b73ffffffffffffffffffffffffffffffffffffffff16146103a9576040517f08c379a00000000000000000000000000000000000000000000000000000000081526004016103a0906110d8565b60405180910390fd5b80606660006101000a81548173ffffffffffffffffffffffffffffffffffffffff021916908373ffffffffffffffffffffffffffffffffffffffff16021790555050565b600060019054906101000a900460ff166104155760008054906101000a900460ff161561041e565b61041d610bc5565b5b61045d576040517f08c379a00000000000000000000000000000000000000000000000000000000081526004016104549061116a565b60405180910390fd5b60008060019054906101000a900460ff1615905080156104ad576001600060016101000a81548160ff02191690831515021790555060016000806101000a81548160ff0219169083151502179055505b6104b5610bd6565b84606560006101000a81548173ffffffffffffffffffffffffffffffffffffffff021916908373ffffffffffffffffffffffffffffffffffffffff16021790555083606660006101000a81548173ffffffffffffffffffffffffffffffffffffffff021916908373ffffffffffffffffffffffffffffffffffffffff16021790555082606760006101000a81548173ffffffffffffffffffffffffffffffffffffffff021916908373ffffffffffffffffffffffffffffffffffffffff16021790555081606760146101000a81548160ff021916908360ff16021790555080156105b45760008060016101000a81548160ff0219169083151502179055505b5050505050565b60006105c561075d565b905060006105d16107a2565b9050606560009054906101000a900473ffffffffffffffffffffffffffffffffffffffff1673ffffffffffffffffffffffffffffffffffffffff1663a9059cbb606660009054906101000a900473ffffffffffffffffffffffffffffffffffffffff16846040518363ffffffff1660e01b815260040161065292919061118a565b6020604051808303816000875af1158015610671573d6000803e3d6000fd5b505050506040513d601f19601f8201168201806040525081019061069591906111eb565b50606560009054906101000a900473ffffffffffffffffffffffffffffffffffffffff1673ffffffffffffffffffffffffffffffffffffffff1663a9059cbb606760009054906101000a900473ffffffffffffffffffffffffffffffffffffffff16836040518363ffffffff1660e01b815260040161071592919061118a565b6020604051808303816000875af1158015610734573d6000803e3d6000fd5b505050506040513d601f19601f8201168201806040525081019061075891906111eb565b505050565b6000610777606760149054906101000a900460ff16610c2f565b905090565b606560009054906101000a900473ffffffffffffffffffffffffffffffffffffffff1681565b60006107c8606760149054906101000a900460ff1660646107c39190611247565b610c2f565b905090565b6107d5610bbd565b73ffffffffffffffffffffffffffffffffffffffff166107f3610a75565b73ffffffffffffffffffffffffffffffffffffffff1614610849576040517f08c379a0000000000000000000000000000000000000000000000000000000008152600401610840906110d8565b60405180910390fd5b6108536000610cf3565b565b606760009054906101000a900473ffffffffffffffffffffffffffffffffffffffff1681565b610883610bbd565b73ffffffffffffffffffffffffffffffffffffffff166108a1610a75565b73ffffffffffffffffffffffffffffffffffffffff16146108f7576040517f08c379a00000000000000000000000000000000000000000000000000000000081526004016108ee906110d8565b60405180910390fd5b60648160ff16111561093e576040517f08c379a0000000000000000000000000000000000000000000000000000000008152600401610935906112ed565b60405180910390fd5b60008160ff1611610984576040517f08c379a000000000000000000000000000000000000000000000000000000000815260040161097b90611359565b60405180910390fd5b80606760146101000a81548160ff021916908360ff16021790555050565b606760149054906101000a900460ff1681565b6109bd610bbd565b73ffffffffffffffffffffffffffffffffffffffff166109db610a75565b73ffffffffffffffffffffffffffffffffffffffff1614610a31576040517f08c379a0000000000000000000000000000000000000000000000000000000008152600401610a28906110d8565b60405180910390fd5b80606760006101000a81548173ffffffffffffffffffffffffffffffffffffffff021916908373ffffffffffffffffffffffffffffffffffffffff16021790555050565b6000603360009054906101000a900473ffffffffffffffffffffffffffffffffffffffff16905090565b606660009054906101000a900473ffffffffffffffffffffffffffffffffffffffff1681565b610acd610bbd565b73ffffffffffffffffffffffffffffffffffffffff16610aeb610a75565b73ffffffffffffffffffffffffffffffffffffffff1614610b41576040517f08c379a0000000000000000000000000000000000000000000000000000000008152600401610b38906110d8565b60405180910390fd5b600073ffffffffffffffffffffffffffffffffffffffff168173ffffffffffffffffffffffffffffffffffffffff161415610bb1576040517f08c379a0000000000000000000000000000000000000000000000000000000008152600401610ba8906113eb565b60405180910390fd5b610bba81610cf3565b50565b600033905090565b6000610bd030610db9565b15905090565b600060019054906101000a900460ff16610c25576040517f08c379a0000000000000000000000000000000000000000000000000000000008152600401610c1c9061147d565b60405180910390fd5b610c2d610ddc565b565b600080606560009054906101000a900473ffffffffffffffffffffffffffffffffffffffff1673ffffffffffffffffffffffffffffffffffffffff166370a08231306040518263ffffffff1660e01b8152600401610c8d9190610fb0565b602060405180830381865afa158015610caa573d6000803e3d6000fd5b505050506040513d601f19601f82011682018060405250810190610cce919061104e565b90508260ff16606482610ce191906114cc565b610ceb91906114fd565b915050919050565b6000603360009054906101000a900473ffffffffffffffffffffffffffffffffffffffff16905081603360006101000a81548173ffffffffffffffffffffffffffffffffffffffff021916908373ffffffffffffffffffffffffffffffffffffffff1602179055508173ffffffffffffffffffffffffffffffffffffffff168173ffffffffffffffffffffffffffffffffffffffff167f8be0079c531659141344cd1fd0a4f28419497f9722a3daafe3b4186f6b6457e060405160405180910390a35050565b6000808273ffffffffffffffffffffffffffffffffffffffff163b119050919050565b600060019054906101000a900460ff16610e2b576040517f08c379a0000000000000000000000000000000000000000000000000000000008152600401610e229061147d565b60405180910390fd5b610e3b610e36610bbd565b610cf3565b565b6000819050919050565b610e5081610e3d565b82525050565b6000602082019050610e6b6000830184610e47565b92915050565b600080fd5b600073ffffffffffffffffffffffffffffffffffffffff82169050919050565b6000610ea182610e76565b9050919050565b610eb181610e96565b8114610ebc57600080fd5b50565b600081359050610ece81610ea8565b92915050565b600060208284031215610eea57610ee9610e71565b5b6000610ef884828501610ebf565b91505092915050565b600060ff82169050919050565b610f1781610f01565b8114610f2257600080fd5b50565b600081359050610f3481610f0e565b92915050565b60008060008060808587031215610f5457610f53610e71565b5b6000610f6287828801610ebf565b9450506020610f7387828801610ebf565b9350506040610f8487828801610ebf565b9250506060610f9587828801610f25565b91505092959194509250565b610faa81610e96565b82525050565b6000602082019050610fc56000830184610fa1565b92915050565b600060208284031215610fe157610fe0610e71565b5b6000610fef84828501610f25565b91505092915050565b61100181610f01565b82525050565b600060208201905061101c6000830184610ff8565b92915050565b61102b81610e3d565b811461103657600080fd5b50565b60008151905061104881611022565b92915050565b60006020828403121561106457611063610e71565b5b600061107284828501611039565b91505092915050565b600082825260208201905092915050565b7f4f776e61626c653a2063616c6c6572206973206e6f7420746865206f776e6572600082015250565b60006110c260208361107b565b91506110cd8261108c565b602082019050919050565b600060208201905081810360008301526110f1816110b5565b9050919050565b7f496e697469616c697a61626c653a20636f6e747261637420697320616c72656160008201527f647920696e697469616c697a6564000000000000000000000000000000000000602082015250565b6000611154602e8361107b565b915061115f826110f8565b604082019050919050565b6000602082019050818103600083015261118381611147565b9050919050565b600060408201905061119f6000830185610fa1565b6111ac6020830184610e47565b9392505050565b60008115159050919050565b6111c8816111b3565b81146111d357600080fd5b50565b6000815190506111e5816111bf565b92915050565b60006020828403121561120157611200610e71565b5b600061120f848285016111d6565b91505092915050565b7f4e487b7100000000000000000000000000000000000000000000000000000000600052601160045260246000fd5b600061125282610f01565b915061125d83610f01565b9250828210156112705761126f611218565b5b828203905092915050565b7f43616e6e6f74207365742070726f706f7274696f6e206d6f726520746861742060008201527f3130302500000000000000000000000000000000000000000000000000000000602082015250565b60006112d760248361107b565b91506112e28261127b565b604082019050919050565b60006020820190508181036000830152611306816112ca565b9050919050565b7f43616e6e6f74206265207a65726f000000000000000000000000000000000000600082015250565b6000611343600e8361107b565b915061134e8261130d565b602082019050919050565b6000602082019050818103600083015261137281611336565b9050919050565b7f4f776e61626c653a206e6577206f776e657220697320746865207a65726f206160008201527f6464726573730000000000000000000000000000000000000000000000000000602082015250565b60006113d560268361107b565b91506113e082611379565b604082019050919050565b60006020820190508181036000830152611404816113c8565b9050919050565b7f496e697469616c697a61626c653a20636f6e7472616374206973206e6f74206960008201527f6e697469616c697a696e67000000000000000000000000000000000000000000602082015250565b6000611467602b8361107b565b91506114728261140b565b604082019050919050565b600060208201905081810360008301526114968161145a565b9050919050565b7f4e487b7100000000000000000000000000000000000000000000000000000000600052601260045260246000fd5b60006114d782610e3d565b91506114e283610e3d565b9250826114f2576114f161149d565b5b828204905092915050565b600061150882610e3d565b915061151383610e3d565b9250817fffffffffffffffffffffffffffffffffffffffffffffffffffffffffffffffff048311821515161561154c5761154b611218565b5b82820290509291505056fea26469706673582212209ea10a2c900db4ac0eaf2f21beb829f4dd072c8b362212174084e5ab1393736464736f6c634300080b0033",
  "immutableReferences": {},
  "source": "// SPDX-License-Identifier: MIT\r\npragma solidity >=0.4.22 <0.9.0;\r\n\r\nimport \"@openzeppelin/contracts-upgradeable/access/OwnableUpgradeable.sol\";\r\nimport \"@openzeppelin/contracts/token/ERC20/IERC20.sol\";\r\n\r\ncontract RevenueShare is Initializable, OwnableUpgradeable {\r\n \r\n    address public acceptedPayTokenAddress;\r\n    address public oortWithdrawlAddress;\r\n    address public envelopWithdrawlAddress;\r\n    \r\n    uint8 public oortProportion;\r\n\r\n    function initialize(\r\n            address payTokenAddress,\r\n            address oortAddress,\r\n            address envelopAddress,\r\n            uint8 proportion) initializer public {\r\n        OwnableUpgradeable.__Ownable_init();\r\n        acceptedPayTokenAddress = payTokenAddress;\r\n        oortWithdrawlAddress = oortAddress;\r\n        envelopWithdrawlAddress = envelopAddress;\r\n        oortProportion = proportion;\r\n    }\r\n\r\n    function setOortWithdrawlAddress(address oortAddress) public onlyOwner {\r\n        oortWithdrawlAddress = oortAddress;\r\n    }\r\n\r\n    function setEnvelopWithdrawlAddress(address envelopAddress) public onlyOwner {\r\n        envelopWithdrawlAddress = envelopAddress;\r\n    }\r\n\r\n    function setOortProportion(uint8 proportion) public onlyOwner {\r\n        require(proportion <= 100, 'Cannot set proportion more that 100%');\r\n        require(proportion > 0, 'Cannot be zero');\r\n        oortProportion = proportion;\r\n    }\r\n\r\n    function getTotalBalance() public view returns (uint256) {\r\n        return IERC20(acceptedPayTokenAddress).balanceOf(address(this));\r\n    }\r\n\r\n    function getProportionalBalance(uint8 proportion) private view returns (uint256) {\r\n        uint256 totalBalance = IERC20(acceptedPayTokenAddress).balanceOf(address(this));\r\n        return totalBalance / 100 * proportion;\r\n    }\r\n\r\n    function getOortBalance() public view returns (uint256) {\r\n        return getProportionalBalance(oortProportion);\r\n    }\r\n\r\n    function getEnvelopBalance() public view returns (uint256) {\r\n        return getProportionalBalance(100 - oortProportion);\r\n    }\r\n\r\n    function withdrawl() public {\r\n        uint256 oortBalance = getOortBalance();\r\n        uint256 envelopBalance = getEnvelopBalance();\r\n        IERC20(acceptedPayTokenAddress).transfer(oortWithdrawlAddress, oortBalance);\r\n        IERC20(acceptedPayTokenAddress).transfer(envelopWithdrawlAddress, envelopBalance);\r\n    }\r\n\r\n}",
  "sourcePath": "C:\\Users\\olteg\\projects\\revenue-share\\contracts\\RevenueShare.sol",
  "compiler": {
    "name": "solc",
    "version": "0.8.11+commit.d7f03943.Emscripten.clang"
  },
  "schemaVersion": "3.4.7",
  "updatedAt": "2022-04-14T15:49:47.322Z",
  "devdoc": {
    "kind": "dev",
    "methods": {
      "owner()": {
        "details": "Returns the address of the current owner."
      },
      "renounceOwnership()": {
        "details": "Leaves the contract without owner. It will not be possible to call `onlyOwner` functions anymore. Can only be called by the current owner. NOTE: Renouncing ownership will leave the contract without an owner, thereby removing any functionality that is only available to the owner."
      },
      "transferOwnership(address)": {
        "details": "Transfers ownership of the contract to a new account (`newOwner`). Can only be called by the current owner."
      }
    },
    "version": 1
  },
  "userdoc": {
    "kind": "user",
    "methods": {},
    "version": 1
  }
}