{
  "contractName": "RevenueShare",
  "abi": [
    {
      "anonymous": false,
      "inputs": [
        {
          "indexed": true,
          "internalType": "address",
          "name": "previousOwner",
          "type": "address"
        },
        {
          "indexed": true,
          "internalType": "address",
          "name": "newOwner",
          "type": "address"
        }
      ],
      "name": "OwnershipTransferred",
      "type": "event"
    },
    {
      "inputs": [],
      "name": "acceptedPayTokenAddress",
      "outputs": [
        {
          "internalType": "address",
          "name": "",
          "type": "address"
        }
      ],
      "stateMutability": "view",
      "type": "function"
    },
    {
      "inputs": [],
      "name": "envelopWithdrawlAddress",
      "outputs": [
        {
          "internalType": "address",
          "name": "",
          "type": "address"
        }
      ],
      "stateMutability": "view",
      "type": "function"
    },
    {
      "inputs": [],
      "name": "oortProportion",
      "outputs": [
        {
          "internalType": "uint16",
          "name": "",
          "type": "uint16"
        }
      ],
      "stateMutability": "view",
      "type": "function"
    },
    {
      "inputs": [],
      "name": "oortWithdrawlAddress",
      "outputs": [
        {
          "internalType": "address",
          "name": "",
          "type": "address"
        }
      ],
      "stateMutability": "view",
      "type": "function"
    },
    {
      "inputs": [],
      "name": "owner",
      "outputs": [
        {
          "internalType": "address",
          "name": "",
          "type": "address"
        }
      ],
      "stateMutability": "view",
      "type": "function"
    },
    {
      "inputs": [],
      "name": "renounceOwnership",
      "outputs": [],
      "stateMutability": "nonpayable",
      "type": "function"
    },
    {
      "inputs": [
        {
          "internalType": "address",
          "name": "newOwner",
          "type": "address"
        }
      ],
      "name": "transferOwnership",
      "outputs": [],
      "stateMutability": "nonpayable",
      "type": "function"
    },
    {
      "inputs": [
        {
          "internalType": "address",
          "name": "payTokenAddress",
          "type": "address"
        },
        {
          "internalType": "address",
          "name": "oortAddress",
          "type": "address"
        },
        {
          "internalType": "address",
          "name": "envelopAddress",
          "type": "address"
        },
        {
          "internalType": "uint16",
          "name": "proportion",
          "type": "uint16"
        }
      ],
      "name": "initialize",
      "outputs": [],
      "stateMutability": "nonpayable",
      "type": "function"
    },
    {
      "inputs": [
        {
          "internalType": "address",
          "name": "oortAddress",
          "type": "address"
        }
      ],
      "name": "setOortWithdrawlAddress",
      "outputs": [],
      "stateMutability": "nonpayable",
      "type": "function"
    },
    {
      "inputs": [
        {
          "internalType": "address",
          "name": "envelopAddress",
          "type": "address"
        }
      ],
      "name": "setEnvelopWithdrawlAddress",
      "outputs": [],
      "stateMutability": "nonpayable",
      "type": "function"
    },
    {
      "inputs": [
        {
          "internalType": "uint16",
          "name": "proportion",
          "type": "uint16"
        }
      ],
      "name": "setOortProportion",
      "outputs": [],
      "stateMutability": "nonpayable",
      "type": "function"
    },
    {
      "inputs": [],
      "name": "getTotalBalance",
      "outputs": [
        {
          "internalType": "uint256",
          "name": "",
          "type": "uint256"
        }
      ],
      "stateMutability": "view",
      "type": "function"
    },
    {
      "inputs": [],
      "name": "getOortBalance",
      "outputs": [
        {
          "internalType": "uint256",
          "name": "",
          "type": "uint256"
        }
      ],
      "stateMutability": "view",
      "type": "function"
    },
    {
      "inputs": [],
      "name": "getEnvelopBalance",
      "outputs": [
        {
          "internalType": "uint256",
          "name": "",
          "type": "uint256"
        }
      ],
      "stateMutability": "view",
      "type": "function"
    },
    {
      "inputs": [],
      "name": "withdrawl",
      "outputs": [],
      "stateMutability": "nonpayable",
      "type": "function"
    }
  ],
  "bytecode": "0x608060405234801561001057600080fd5b5061179f806100206000396000f3fe608060405234801561001057600080fd5b50600436106100f55760003560e01c8063715018a6116100975780638da5cb5b116100665780638da5cb5b146102165780639ba5f27a14610234578063edd2c08514610250578063f2fde38b1461026e576100f5565b8063715018a6146101b4578063735682c1146101be578063791e32d1146101dc5780638b0f1273146101fa576100f5565b80633aedfb8b116100d35780633aedfb8b1461015057806345a3532c1461015a5780635e2afd96146101785780635e37914014610196576100f5565b806312b58349146100fa57806325cee199146101185780632e11275714610134575b600080fd5b61010261028a565b60405161010f9190610f43565b60405180910390f35b610132600480360381019061012d9190610fc1565b61032d565b005b61014e60048036038101906101499190611028565b61045d565b005b61015861062d565b005b6101626107cf565b60405161016f9190610f43565b60405180910390f35b6101806107ef565b60405161018d919061109e565b60405180910390f35b61019e610815565b6040516101ab9190610f43565b60405180910390f35b6101bc610842565b005b6101c66108ca565b6040516101d3919061109e565b60405180910390f35b6101e46108f0565b6040516101f191906110c8565b60405180910390f35b610214600480360381019061020f9190610fc1565b610904565b005b61021e610a34565b60405161022b919061109e565b60405180910390f35b61024e600480360381019061024991906110e3565b610a5e565b005b610258610b8a565b604051610265919061109e565b60405180910390f35b61028860048036038101906102839190610fc1565b610bb0565b005b6000606560009054906101000a900473ffffffffffffffffffffffffffffffffffffffff1673ffffffffffffffffffffffffffffffffffffffff166370a08231306040518263ffffffff1660e01b81526004016102e7919061109e565b602060405180830381865afa158015610304573d6000803e3d6000fd5b505050506040513d601f19601f82011682018060405250810190610328919061113c565b905090565b610335610ca8565b73ffffffffffffffffffffffffffffffffffffffff16610353610a34565b73ffffffffffffffffffffffffffffffffffffffff16146103a9576040517f08c379a00000000000000000000000000000000000000000000000000000000081526004016103a0906111c6565b60405180910390fd5b600073ffffffffffffffffffffffffffffffffffffffff168173ffffffffffffffffffffffffffffffffffffffff161415610419576040517f08c379a000000000000000000000000000000000000000000000000000000000815260040161041090611258565b60405180910390fd5b80606660006101000a81548173ffffffffffffffffffffffffffffffffffffffff021916908373ffffffffffffffffffffffffffffffffffffffff16021790555050565b600060019054906101000a900460ff166104855760008054906101000a900460ff161561048e565b61048d610cb0565b5b6104cd576040517f08c379a00000000000000000000000000000000000000000000000000000000081526004016104c4906112ea565b60405180910390fd5b60008060019054906101000a900460ff16159050801561051d576001600060016101000a81548160ff02191690831515021790555060016000806101000a81548160ff0219169083151502179055505b610525610cc1565b84606560006101000a81548173ffffffffffffffffffffffffffffffffffffffff021916908373ffffffffffffffffffffffffffffffffffffffff16021790555083606660006101000a81548173ffffffffffffffffffffffffffffffffffffffff021916908373ffffffffffffffffffffffffffffffffffffffff16021790555082606760006101000a81548173ffffffffffffffffffffffffffffffffffffffff021916908373ffffffffffffffffffffffffffffffffffffffff16021790555081606760146101000a81548161ffff021916908361ffff16021790555080156106265760008060016101000a81548160ff0219169083151502179055505b5050505050565b60006106376107cf565b90506000610643610815565b9050606560009054906101000a900473ffffffffffffffffffffffffffffffffffffffff1673ffffffffffffffffffffffffffffffffffffffff1663a9059cbb606660009054906101000a900473ffffffffffffffffffffffffffffffffffffffff16846040518363ffffffff1660e01b81526004016106c492919061130a565b6020604051808303816000875af11580156106e3573d6000803e3d6000fd5b505050506040513d601f19601f82011682018060405250810190610707919061136b565b50606560009054906101000a900473ffffffffffffffffffffffffffffffffffffffff1673ffffffffffffffffffffffffffffffffffffffff1663a9059cbb606760009054906101000a900473ffffffffffffffffffffffffffffffffffffffff16836040518363ffffffff1660e01b815260040161078792919061130a565b6020604051808303816000875af11580156107a6573d6000803e3d6000fd5b505050506040513d601f19601f820116820180604052508101906107ca919061136b565b505050565b60006107ea606760149054906101000a900461ffff16610d1a565b905090565b606560009054906101000a900473ffffffffffffffffffffffffffffffffffffffff1681565b600061083d606760149054906101000a900461ffff1661271061083891906113c7565b610d1a565b905090565b61084a610ca8565b73ffffffffffffffffffffffffffffffffffffffff16610868610a34565b73ffffffffffffffffffffffffffffffffffffffff16146108be576040517f08c379a00000000000000000000000000000000000000000000000000000000081526004016108b5906111c6565b60405180910390fd5b6108c86000610de0565b565b606760009054906101000a900473ffffffffffffffffffffffffffffffffffffffff1681565b606760149054906101000a900461ffff1681565b61090c610ca8565b73ffffffffffffffffffffffffffffffffffffffff1661092a610a34565b73ffffffffffffffffffffffffffffffffffffffff1614610980576040517f08c379a0000000000000000000000000000000000000000000000000000000008152600401610977906111c6565b60405180910390fd5b600073ffffffffffffffffffffffffffffffffffffffff168173ffffffffffffffffffffffffffffffffffffffff1614156109f0576040517f08c379a00000000000000000000000000000000000000000000000000000000081526004016109e79061146d565b60405180910390fd5b80606760006101000a81548173ffffffffffffffffffffffffffffffffffffffff021916908373ffffffffffffffffffffffffffffffffffffffff16021790555050565b6000603360009054906101000a900473ffffffffffffffffffffffffffffffffffffffff16905090565b610a66610ca8565b73ffffffffffffffffffffffffffffffffffffffff16610a84610a34565b73ffffffffffffffffffffffffffffffffffffffff1614610ada576040517f08c379a0000000000000000000000000000000000000000000000000000000008152600401610ad1906111c6565b60405180910390fd5b6127108161ffff161115610b23576040517f08c379a0000000000000000000000000000000000000000000000000000000008152600401610b1a906114ff565b60405180910390fd5b60008161ffff1611610b6a576040517f08c379a0000000000000000000000000000000000000000000000000000000008152600401610b619061156b565b60405180910390fd5b80606760146101000a81548161ffff021916908361ffff16021790555050565b606660009054906101000a900473ffffffffffffffffffffffffffffffffffffffff1681565b610bb8610ca8565b73ffffffffffffffffffffffffffffffffffffffff16610bd6610a34565b73ffffffffffffffffffffffffffffffffffffffff1614610c2c576040517f08c379a0000000000000000000000000000000000000000000000000000000008152600401610c23906111c6565b60405180910390fd5b600073ffffffffffffffffffffffffffffffffffffffff168173ffffffffffffffffffffffffffffffffffffffff161415610c9c576040517f08c379a0000000000000000000000000000000000000000000000000000000008152600401610c93906115fd565b60405180910390fd5b610ca581610de0565b50565b600033905090565b6000610cbb30610ea6565b15905090565b600060019054906101000a900460ff16610d10576040517f08c379a0000000000000000000000000000000000000000000000000000000008152600401610d079061168f565b60405180910390fd5b610d18610ec9565b565b600080606560009054906101000a900473ffffffffffffffffffffffffffffffffffffffff1673ffffffffffffffffffffffffffffffffffffffff166370a08231306040518263ffffffff1660e01b8152600401610d78919061109e565b602060405180830381865afa158015610d95573d6000803e3d6000fd5b505050506040513d601f19601f82011682018060405250810190610db9919061113c565b90508261ffff1661271082610dce91906116de565b610dd8919061170f565b915050919050565b6000603360009054906101000a900473ffffffffffffffffffffffffffffffffffffffff16905081603360006101000a81548173ffffffffffffffffffffffffffffffffffffffff021916908373ffffffffffffffffffffffffffffffffffffffff1602179055508173ffffffffffffffffffffffffffffffffffffffff168173ffffffffffffffffffffffffffffffffffffffff167f8be0079c531659141344cd1fd0a4f28419497f9722a3daafe3b4186f6b6457e060405160405180910390a35050565b6000808273ffffffffffffffffffffffffffffffffffffffff163b119050919050565b600060019054906101000a900460ff16610f18576040517f08c379a0000000000000000000000000000000000000000000000000000000008152600401610f0f9061168f565b60405180910390fd5b610f28610f23610ca8565b610de0565b565b6000819050919050565b610f3d81610f2a565b82525050565b6000602082019050610f586000830184610f34565b92915050565b600080fd5b600073ffffffffffffffffffffffffffffffffffffffff82169050919050565b6000610f8e82610f63565b9050919050565b610f9e81610f83565b8114610fa957600080fd5b50565b600081359050610fbb81610f95565b92915050565b600060208284031215610fd757610fd6610f5e565b5b6000610fe584828501610fac565b91505092915050565b600061ffff82169050919050565b61100581610fee565b811461101057600080fd5b50565b60008135905061102281610ffc565b92915050565b6000806000806080858703121561104257611041610f5e565b5b600061105087828801610fac565b945050602061106187828801610fac565b935050604061107287828801610fac565b925050606061108387828801611013565b91505092959194509250565b61109881610f83565b82525050565b60006020820190506110b3600083018461108f565b92915050565b6110c281610fee565b82525050565b60006020820190506110dd60008301846110b9565b92915050565b6000602082840312156110f9576110f8610f5e565b5b600061110784828501611013565b91505092915050565b61111981610f2a565b811461112457600080fd5b50565b60008151905061113681611110565b92915050565b60006020828403121561115257611151610f5e565b5b600061116084828501611127565b91505092915050565b600082825260208201905092915050565b7f4f776e61626c653a2063616c6c6572206973206e6f7420746865206f776e6572600082015250565b60006111b0602083611169565b91506111bb8261117a565b602082019050919050565b600060208201905081810360008301526111df816111a3565b9050919050565b7f4e6577206f6f727457697468647261776c41646472657373206973207468652060008201527f7a65726f20616464726573730000000000000000000000000000000000000000602082015250565b6000611242602c83611169565b915061124d826111e6565b604082019050919050565b6000602082019050818103600083015261127181611235565b9050919050565b7f496e697469616c697a61626c653a20636f6e747261637420697320616c72656160008201527f647920696e697469616c697a6564000000000000000000000000000000000000602082015250565b60006112d4602e83611169565b91506112df82611278565b604082019050919050565b60006020820190508181036000830152611303816112c7565b9050919050565b600060408201905061131f600083018561108f565b61132c6020830184610f34565b9392505050565b60008115159050919050565b61134881611333565b811461135357600080fd5b50565b6000815190506113658161133f565b92915050565b60006020828403121561138157611380610f5e565b5b600061138f84828501611356565b91505092915050565b7f4e487b7100000000000000000000000000000000000000000000000000000000600052601160045260246000fd5b60006113d282610fee565b91506113dd83610fee565b9250828210156113f0576113ef611398565b5b828203905092915050565b7f4e657720656e76656c6f7057697468647261776c41646472657373206973207460008201527f6865207a65726f20616464726573730000000000000000000000000000000000602082015250565b6000611457602f83611169565b9150611462826113fb565b604082019050919050565b600060208201905081810360008301526114868161144a565b9050919050565b7f43616e6e6f74207365742070726f706f7274696f6e206d6f726520746861742060008201527f3130303030000000000000000000000000000000000000000000000000000000602082015250565b60006114e9602583611169565b91506114f48261148d565b604082019050919050565b60006020820190508181036000830152611518816114dc565b9050919050565b7f43616e6e6f7420736574207a65726f2070726f706f7274696f6e000000000000600082015250565b6000611555601a83611169565b91506115608261151f565b602082019050919050565b6000602082019050818103600083015261158481611548565b9050919050565b7f4f776e61626c653a206e6577206f776e657220697320746865207a65726f206160008201527f6464726573730000000000000000000000000000000000000000000000000000602082015250565b60006115e7602683611169565b91506115f28261158b565b604082019050919050565b60006020820190508181036000830152611616816115da565b9050919050565b7f496e697469616c697a61626c653a20636f6e7472616374206973206e6f74206960008201527f6e697469616c697a696e67000000000000000000000000000000000000000000602082015250565b6000611679602b83611169565b91506116848261161d565b604082019050919050565b600060208201905081810360008301526116a88161166c565b9050919050565b7f4e487b7100000000000000000000000000000000000000000000000000000000600052601260045260246000fd5b60006116e982610f2a565b91506116f483610f2a565b925082611704576117036116af565b5b828204905092915050565b600061171a82610f2a565b915061172583610f2a565b9250817fffffffffffffffffffffffffffffffffffffffffffffffffffffffffffffffff048311821515161561175e5761175d611398565b5b82820290509291505056fea2646970667358221220bb90de95eeb6f8727bd62f49163f7a6794d88fa5c605e626e0a2c577905e0c0964736f6c634300080b0033",
  "immutableReferences": {},
  "source": "// SPDX-License-Identifier: MIT\r\npragma solidity >=0.4.22 <0.9.0;\r\n\r\nimport \"@openzeppelin/contracts-upgradeable/access/OwnableUpgradeable.sol\";\r\nimport \"@openzeppelin/contracts/token/ERC20/IERC20.sol\";\r\n\r\ncontract RevenueShare is Initializable, OwnableUpgradeable {\r\n \r\n    address public acceptedPayTokenAddress;\r\n    address public oortWithdrawlAddress;\r\n    address public envelopWithdrawlAddress;\r\n    \r\n    //has 2 decimals\r\n    // for example 100.5 = 10050\r\n    uint16 public oortProportion;\r\n\r\n    function initialize(\r\n            address payTokenAddress,\r\n            address oortAddress,\r\n            address envelopAddress,\r\n            uint16 proportion) initializer public {\r\n        OwnableUpgradeable.__Ownable_init();\r\n        acceptedPayTokenAddress = payTokenAddress;\r\n        oortWithdrawlAddress = oortAddress;\r\n        envelopWithdrawlAddress = envelopAddress;\r\n        oortProportion = proportion;\r\n    }\r\n\r\n    function setOortWithdrawlAddress(address oortAddress) public onlyOwner {\r\n        require(oortAddress != address(0), 'New oortWithdrawlAddress is the zero address');\r\n        oortWithdrawlAddress = oortAddress;\r\n    }\r\n\r\n    function setEnvelopWithdrawlAddress(address envelopAddress) public onlyOwner {\r\n        require(envelopAddress != address(0), 'New envelopWithdrawlAddress is the zero address');\r\n        envelopWithdrawlAddress = envelopAddress;\r\n    }\r\n\r\n    function setOortProportion(uint16 proportion) public onlyOwner {\r\n        require(proportion <= 10000, 'Cannot set proportion more that 10000');\r\n        require(proportion > 0, 'Cannot set zero proportion');\r\n        oortProportion = proportion;\r\n    }\r\n\r\n    function getTotalBalance() public view returns (uint256) {\r\n        return IERC20(acceptedPayTokenAddress).balanceOf(address(this));\r\n    }\r\n\r\n    function getProportionalBalance(uint16 proportion) private view returns (uint256) {\r\n        uint256 totalBalance = IERC20(acceptedPayTokenAddress).balanceOf(address(this));\r\n        return totalBalance / 10000 * proportion;\r\n    }\r\n\r\n    function getOortBalance() public view returns (uint256) {\r\n        return getProportionalBalance(oortProportion);\r\n    }\r\n\r\n    function getEnvelopBalance() public view returns (uint256) {\r\n        return getProportionalBalance(10000 - oortProportion);\r\n    }\r\n\r\n    function withdrawl() public {\r\n        uint256 oortBalance = getOortBalance();\r\n        uint256 envelopBalance = getEnvelopBalance();\r\n        IERC20(acceptedPayTokenAddress).transfer(oortWithdrawlAddress, oortBalance);\r\n        IERC20(acceptedPayTokenAddress).transfer(envelopWithdrawlAddress, envelopBalance);\r\n    }\r\n\r\n}",
  "sourcePath": "C:\\Users\\olteg\\projects\\revenue-share\\contracts\\RevenueShare.sol",
  "compiler": {
    "name": "solc",
    "version": "0.8.11+commit.d7f03943.Emscripten.clang"
  },
  "schemaVersion": "3.4.4",
  "updatedAt": "2022-04-30T22:13:57.759Z",
  "devdoc": {
    "kind": "dev",
    "methods": {
      "owner()": {
        "details": "Returns the address of the current owner."
      },
      "renounceOwnership()": {
        "details": "Leaves the contract without owner. It will not be possible to call `onlyOwner` functions anymore. Can only be called by the current owner. NOTE: Renouncing ownership will leave the contract without an owner, thereby removing any functionality that is only available to the owner."
      },
      "transferOwnership(address)": {
        "details": "Transfers ownership of the contract to a new account (`newOwner`). Can only be called by the current owner."
      }
    },
    "version": 1
  },
  "userdoc": {
    "kind": "user",
    "methods": {},
    "version": 1
  }
}