{
  "contractName": "RevenueShare",
  "abi": [
    {
      "anonymous": false,
      "inputs": [
        {
          "indexed": true,
          "internalType": "address",
          "name": "previousOwner",
          "type": "address"
        },
        {
          "indexed": true,
          "internalType": "address",
          "name": "newOwner",
          "type": "address"
        }
      ],
      "name": "OwnershipTransferred",
      "type": "event"
    },
    {
      "inputs": [],
      "name": "acceptedPayTokenAddress",
      "outputs": [
        {
          "internalType": "address",
          "name": "",
          "type": "address"
        }
      ],
      "stateMutability": "view",
      "type": "function"
    },
    {
      "inputs": [],
      "name": "envelopWithdrawlAddress",
      "outputs": [
        {
          "internalType": "address",
          "name": "",
          "type": "address"
        }
      ],
      "stateMutability": "view",
      "type": "function"
    },
    {
      "inputs": [],
      "name": "oortProportion",
      "outputs": [
        {
          "internalType": "uint8",
          "name": "",
          "type": "uint8"
        }
      ],
      "stateMutability": "view",
      "type": "function"
    },
    {
      "inputs": [],
      "name": "oortWithdrawlAddress",
      "outputs": [
        {
          "internalType": "address",
          "name": "",
          "type": "address"
        }
      ],
      "stateMutability": "view",
      "type": "function"
    },
    {
      "inputs": [],
      "name": "owner",
      "outputs": [
        {
          "internalType": "address",
          "name": "",
          "type": "address"
        }
      ],
      "stateMutability": "view",
      "type": "function"
    },
    {
      "inputs": [],
      "name": "renounceOwnership",
      "outputs": [],
      "stateMutability": "nonpayable",
      "type": "function"
    },
    {
      "inputs": [
        {
          "internalType": "address",
          "name": "newOwner",
          "type": "address"
        }
      ],
      "name": "transferOwnership",
      "outputs": [],
      "stateMutability": "nonpayable",
      "type": "function"
    },
    {
      "inputs": [
        {
          "internalType": "address",
          "name": "payTokenAddress",
          "type": "address"
        }
      ],
      "name": "initialize",
      "outputs": [],
      "stateMutability": "nonpayable",
      "type": "function"
    },
    {
      "inputs": [
        {
          "internalType": "address",
          "name": "oortAddress",
          "type": "address"
        }
      ],
      "name": "setOortWithdrawlAddress",
      "outputs": [],
      "stateMutability": "nonpayable",
      "type": "function"
    },
    {
      "inputs": [
        {
          "internalType": "address",
          "name": "envelopAddress",
          "type": "address"
        }
      ],
      "name": "setEnvelopWithdrawlAddress",
      "outputs": [],
      "stateMutability": "nonpayable",
      "type": "function"
    },
    {
      "inputs": [
        {
          "internalType": "uint8",
          "name": "proportion",
          "type": "uint8"
        }
      ],
      "name": "setOortProportion",
      "outputs": [],
      "stateMutability": "nonpayable",
      "type": "function"
    },
    {
      "inputs": [],
      "name": "getTotalBalance",
      "outputs": [
        {
          "internalType": "uint256",
          "name": "",
          "type": "uint256"
        }
      ],
      "stateMutability": "view",
      "type": "function"
    },
    {
      "inputs": [],
      "name": "withdrawl",
      "outputs": [],
      "stateMutability": "nonpayable",
      "type": "function"
    }
  ],
  "bytecode": "0x608060405234801561001057600080fd5b50611372806100206000396000f3fe608060405234801561001057600080fd5b50600436106100cf5760003560e01c8063739bc3dc1161008c5780638da5cb5b116100665780638da5cb5b146101b4578063c4d66de8146101d2578063edd2c085146101ee578063f2fde38b1461020c576100cf565b8063739bc3dc1461015e578063791e32d11461017a5780638b0f127314610198576100cf565b806312b58349146100d457806325cee199146100f25780633aedfb8b1461010e5780635e2afd9614610118578063715018a614610136578063735682c114610140575b600080fd5b6100dc610228565b6040516100e99190610d0e565b60405180910390f35b61010c60048036038101906101079190610d8c565b6102cb565b005b61011661038b565b005b61012061052d565b60405161012d9190610dc8565b60405180910390f35b61013e610553565b005b6101486105db565b6040516101559190610dc8565b60405180910390f35b61017860048036038101906101739190610e1c565b610601565b005b6101826106e2565b60405161018f9190610e58565b60405180910390f35b6101b260048036038101906101ad9190610d8c565b6106f5565b005b6101bc6107b5565b6040516101c99190610dc8565b60405180910390f35b6101ec60048036038101906101e79190610d8c565b6107df565b005b6101f661090d565b6040516102039190610dc8565b60405180910390f35b61022660048036038101906102219190610d8c565b610933565b005b6000606560009054906101000a900473ffffffffffffffffffffffffffffffffffffffff1673ffffffffffffffffffffffffffffffffffffffff166370a08231306040518263ffffffff1660e01b81526004016102859190610dc8565b602060405180830381865afa1580156102a2573d6000803e3d6000fd5b505050506040513d601f19601f820116820180604052508101906102c69190610e9f565b905090565b6102d3610a2b565b73ffffffffffffffffffffffffffffffffffffffff166102f16107b5565b73ffffffffffffffffffffffffffffffffffffffff1614610347576040517f08c379a000000000000000000000000000000000000000000000000000000000815260040161033e90610f29565b60405180910390fd5b80606660006101000a81548173ffffffffffffffffffffffffffffffffffffffff021916908373ffffffffffffffffffffffffffffffffffffffff16021790555050565b6000610395610a33565b905060006103a1610a52565b9050606560009054906101000a900473ffffffffffffffffffffffffffffffffffffffff1673ffffffffffffffffffffffffffffffffffffffff1663a9059cbb606660009054906101000a900473ffffffffffffffffffffffffffffffffffffffff16846040518363ffffffff1660e01b8152600401610422929190610f49565b6020604051808303816000875af1158015610441573d6000803e3d6000fd5b505050506040513d601f19601f820116820180604052508101906104659190610faa565b50606560009054906101000a900473ffffffffffffffffffffffffffffffffffffffff1673ffffffffffffffffffffffffffffffffffffffff1663a9059cbb606760009054906101000a900473ffffffffffffffffffffffffffffffffffffffff16836040518363ffffffff1660e01b81526004016104e5929190610f49565b6020604051808303816000875af1158015610504573d6000803e3d6000fd5b505050506040513d601f19601f820116820180604052508101906105289190610faa565b505050565b606560009054906101000a900473ffffffffffffffffffffffffffffffffffffffff1681565b61055b610a2b565b73ffffffffffffffffffffffffffffffffffffffff166105796107b5565b73ffffffffffffffffffffffffffffffffffffffff16146105cf576040517f08c379a00000000000000000000000000000000000000000000000000000000081526004016105c690610f29565b60405180910390fd5b6105d96000610a7d565b565b606760009054906101000a900473ffffffffffffffffffffffffffffffffffffffff1681565b610609610a2b565b73ffffffffffffffffffffffffffffffffffffffff166106276107b5565b73ffffffffffffffffffffffffffffffffffffffff161461067d576040517f08c379a000000000000000000000000000000000000000000000000000000000815260040161067490610f29565b60405180910390fd5b60648160ff1611156106c4576040517f08c379a00000000000000000000000000000000000000000000000000000000081526004016106bb90611049565b60405180910390fd5b80606760146101000a81548160ff021916908360ff16021790555050565b606760149054906101000a900460ff1681565b6106fd610a2b565b73ffffffffffffffffffffffffffffffffffffffff1661071b6107b5565b73ffffffffffffffffffffffffffffffffffffffff1614610771576040517f08c379a000000000000000000000000000000000000000000000000000000000815260040161076890610f29565b60405180910390fd5b80606760006101000a81548173ffffffffffffffffffffffffffffffffffffffff021916908373ffffffffffffffffffffffffffffffffffffffff16021790555050565b6000603360009054906101000a900473ffffffffffffffffffffffffffffffffffffffff16905090565b600060019054906101000a900460ff166108075760008054906101000a900460ff1615610810565b61080f610b43565b5b61084f576040517f08c379a0000000000000000000000000000000000000000000000000000000008152600401610846906110db565b60405180910390fd5b60008060019054906101000a900460ff16159050801561089f576001600060016101000a81548160ff02191690831515021790555060016000806101000a81548160ff0219169083151502179055505b6108a7610b54565b81606560006101000a81548173ffffffffffffffffffffffffffffffffffffffff021916908373ffffffffffffffffffffffffffffffffffffffff16021790555080156109095760008060016101000a81548160ff0219169083151502179055505b5050565b606660009054906101000a900473ffffffffffffffffffffffffffffffffffffffff1681565b61093b610a2b565b73ffffffffffffffffffffffffffffffffffffffff166109596107b5565b73ffffffffffffffffffffffffffffffffffffffff16146109af576040517f08c379a00000000000000000000000000000000000000000000000000000000081526004016109a690610f29565b60405180910390fd5b600073ffffffffffffffffffffffffffffffffffffffff168173ffffffffffffffffffffffffffffffffffffffff161415610a1f576040517f08c379a0000000000000000000000000000000000000000000000000000000008152600401610a169061116d565b60405180910390fd5b610a2881610a7d565b50565b600033905090565b6000610a4d606760149054906101000a900460ff16610bad565b905090565b6000610a78606760149054906101000a900460ff166064610a7391906111bc565b610bad565b905090565b6000603360009054906101000a900473ffffffffffffffffffffffffffffffffffffffff16905081603360006101000a81548173ffffffffffffffffffffffffffffffffffffffff021916908373ffffffffffffffffffffffffffffffffffffffff1602179055508173ffffffffffffffffffffffffffffffffffffffff168173ffffffffffffffffffffffffffffffffffffffff167f8be0079c531659141344cd1fd0a4f28419497f9722a3daafe3b4186f6b6457e060405160405180910390a35050565b6000610b4e30610c71565b15905090565b600060019054906101000a900460ff16610ba3576040517f08c379a0000000000000000000000000000000000000000000000000000000008152600401610b9a90611262565b60405180910390fd5b610bab610c94565b565b600080606560009054906101000a900473ffffffffffffffffffffffffffffffffffffffff1673ffffffffffffffffffffffffffffffffffffffff166370a08231306040518263ffffffff1660e01b8152600401610c0b9190610dc8565b602060405180830381865afa158015610c28573d6000803e3d6000fd5b505050506040513d601f19601f82011682018060405250810190610c4c9190610e9f565b90508260ff16606482610c5f91906112b1565b610c6991906112e2565b915050919050565b6000808273ffffffffffffffffffffffffffffffffffffffff163b119050919050565b600060019054906101000a900460ff16610ce3576040517f08c379a0000000000000000000000000000000000000000000000000000000008152600401610cda90611262565b60405180910390fd5b610cf3610cee610a2b565b610a7d565b565b6000819050919050565b610d0881610cf5565b82525050565b6000602082019050610d236000830184610cff565b92915050565b600080fd5b600073ffffffffffffffffffffffffffffffffffffffff82169050919050565b6000610d5982610d2e565b9050919050565b610d6981610d4e565b8114610d7457600080fd5b50565b600081359050610d8681610d60565b92915050565b600060208284031215610da257610da1610d29565b5b6000610db084828501610d77565b91505092915050565b610dc281610d4e565b82525050565b6000602082019050610ddd6000830184610db9565b92915050565b600060ff82169050919050565b610df981610de3565b8114610e0457600080fd5b50565b600081359050610e1681610df0565b92915050565b600060208284031215610e3257610e31610d29565b5b6000610e4084828501610e07565b91505092915050565b610e5281610de3565b82525050565b6000602082019050610e6d6000830184610e49565b92915050565b610e7c81610cf5565b8114610e8757600080fd5b50565b600081519050610e9981610e73565b92915050565b600060208284031215610eb557610eb4610d29565b5b6000610ec384828501610e8a565b91505092915050565b600082825260208201905092915050565b7f4f776e61626c653a2063616c6c6572206973206e6f7420746865206f776e6572600082015250565b6000610f13602083610ecc565b9150610f1e82610edd565b602082019050919050565b60006020820190508181036000830152610f4281610f06565b9050919050565b6000604082019050610f5e6000830185610db9565b610f6b6020830184610cff565b9392505050565b60008115159050919050565b610f8781610f72565b8114610f9257600080fd5b50565b600081519050610fa481610f7e565b92915050565b600060208284031215610fc057610fbf610d29565b5b6000610fce84828501610f95565b91505092915050565b7f43616e6e6f74207365742070726f706f7274696f6e206d6f726520746861742060008201527f3130302500000000000000000000000000000000000000000000000000000000602082015250565b6000611033602483610ecc565b915061103e82610fd7565b604082019050919050565b6000602082019050818103600083015261106281611026565b9050919050565b7f496e697469616c697a61626c653a20636f6e747261637420697320616c72656160008201527f647920696e697469616c697a6564000000000000000000000000000000000000602082015250565b60006110c5602e83610ecc565b91506110d082611069565b604082019050919050565b600060208201905081810360008301526110f4816110b8565b9050919050565b7f4f776e61626c653a206e6577206f776e657220697320746865207a65726f206160008201527f6464726573730000000000000000000000000000000000000000000000000000602082015250565b6000611157602683610ecc565b9150611162826110fb565b604082019050919050565b600060208201905081810360008301526111868161114a565b9050919050565b7f4e487b7100000000000000000000000000000000000000000000000000000000600052601160045260246000fd5b60006111c782610de3565b91506111d283610de3565b9250828210156111e5576111e461118d565b5b828203905092915050565b7f496e697469616c697a61626c653a20636f6e7472616374206973206e6f74206960008201527f6e697469616c697a696e67000000000000000000000000000000000000000000602082015250565b600061124c602b83610ecc565b9150611257826111f0565b604082019050919050565b6000602082019050818103600083015261127b8161123f565b9050919050565b7f4e487b7100000000000000000000000000000000000000000000000000000000600052601260045260246000fd5b60006112bc82610cf5565b91506112c783610cf5565b9250826112d7576112d6611282565b5b828204905092915050565b60006112ed82610cf5565b91506112f883610cf5565b9250817fffffffffffffffffffffffffffffffffffffffffffffffffffffffffffffffff04831182151516156113315761133061118d565b5b82820290509291505056fea264697066735822122011e0f13efb7dd5c5684ce772220f2741a7b8e833853b6c5b6fde1b07741d2dab64736f6c634300080b0033",
  "immutableReferences": {},
  "source": "// SPDX-License-Identifier: MIT\r\npragma solidity >=0.4.22 <0.9.0;\r\n\r\nimport \"@openzeppelin/contracts-upgradeable/access/OwnableUpgradeable.sol\";\r\nimport \"@openzeppelin/contracts/token/ERC20/IERC20.sol\";\r\n\r\ncontract RevenueShare is Initializable, OwnableUpgradeable {\r\n \r\n    address public acceptedPayTokenAddress;\r\n    address public oortWithdrawlAddress;\r\n    address public envelopWithdrawlAddress;\r\n    \r\n    uint8 public oortProportion;\r\n\r\n    function initialize(address payTokenAddress) initializer public {\r\n        OwnableUpgradeable.__Ownable_init();\r\n        acceptedPayTokenAddress = payTokenAddress;\r\n    }\r\n\r\n    function setOortWithdrawlAddress(address oortAddress) public onlyOwner {\r\n        oortWithdrawlAddress = oortAddress;\r\n    }\r\n\r\n    function setEnvelopWithdrawlAddress(address envelopAddress) public onlyOwner {\r\n        envelopWithdrawlAddress = envelopAddress;\r\n    }\r\n\r\n    function setOortProportion(uint8 proportion) public onlyOwner {\r\n        require(proportion <= 100, 'Cannot set proportion more that 100%');\r\n        oortProportion = proportion;\r\n    }\r\n\r\n    function getTotalBalance() public view returns (uint256) {\r\n        return IERC20(acceptedPayTokenAddress).balanceOf(address(this));\r\n    }\r\n\r\n    function getProportionalBalance(uint8 proportion) private view returns (uint256) {\r\n        uint256 totalBalance = IERC20(acceptedPayTokenAddress).balanceOf(address(this));\r\n        return totalBalance / 100 * proportion;\r\n    }\r\n\r\n    function getOortBalance() private view returns (uint256) {\r\n        return getProportionalBalance(oortProportion);\r\n    }\r\n\r\n    function getEnvelopBalance() private view returns (uint256) {\r\n        return getProportionalBalance(100 - oortProportion);\r\n    }\r\n\r\n    function withdrawl() public {\r\n        uint256 oortBalance = getOortBalance();\r\n        uint256 envelopBalance = getEnvelopBalance();\r\n        IERC20(acceptedPayTokenAddress).transfer(oortWithdrawlAddress, oortBalance);\r\n        IERC20(acceptedPayTokenAddress).transfer(envelopWithdrawlAddress, envelopBalance);\r\n    }\r\n\r\n}",
  "sourcePath": "C:\\Users\\olteg\\projects\\revenue-share\\contracts\\RevenueShare.sol",
  "compiler": {
    "name": "solc",
    "version": "0.8.11+commit.d7f03943.Emscripten.clang"
  },
  "schemaVersion": "3.4.4",
  "updatedAt": "2022-04-14T14:46:45.839Z",
  "devdoc": {
    "kind": "dev",
    "methods": {
      "owner()": {
        "details": "Returns the address of the current owner."
      },
      "renounceOwnership()": {
        "details": "Leaves the contract without owner. It will not be possible to call `onlyOwner` functions anymore. Can only be called by the current owner. NOTE: Renouncing ownership will leave the contract without an owner, thereby removing any functionality that is only available to the owner."
      },
      "transferOwnership(address)": {
        "details": "Transfers ownership of the contract to a new account (`newOwner`). Can only be called by the current owner."
      }
    },
    "version": 1
  },
  "userdoc": {
    "kind": "user",
    "methods": {},
    "version": 1
  }
}